:100000000C946F230C94A0230C94A0230C94A02395
:100010000C94A0230C94A0230C94A0230C94A02354
:100020000C94A0230C94A0230C94A0230C94A02344
:100030000C94A0230C94A0230C94A0230C94A02334
:100040000C94A0230C94DE6D0C94A0230C94A0239C
:100050000C94A0230C94A0230C949D8E0C9407FE6A
:100060000C94A0230C94DC4C0C94A0230C94A0239F
:100070000C94A0230C94A0230C94A0230C94A023F4
:100080000C94A0230C94A0230C94A0230C94A023E4
:100090000C94A0230C94A0230C94A0230C94A023D4
:1000A0000C94A0230C94A0230C94A0230C94A023C4
:1000B0000C94A0230C94A0230C94A0230C94A023B4
:1000C0000C94A0230C94A0230C94A0230C94A023A4
:1000D0000C94A0230C94A0230C94A0230C94A02394
:1000E0000C94A023939D9C9DA69DAF9DB89DD39DF0
:1000F000E09DE99DC19DCA9D43FC46FC35FC39FC51
:100100003FFC7DFC4AFC4EFC54FC58FC5CFC62FC51
:1001100066FC6AFC7DFC70FC74FC78FC23FD28FD09
:100120002DFD37FD41FDBAFD4BFD53FD5BFD65FD2A
:100130006FFD79FD88FD92FDBAFD9CFDA6FDB0FD29
:1001400011010D01030137011B010901190105A866
:100150004CCDB2D44EB93836A9020C50B99186882C
:10016000083CA6AAAA2ABE000000803F07634236C8
:10017000B79BD8A71A39685618AEBAAB558C1D3C38
:10018000B7CC5763BD6DEDFD753EF6177231BF00FC
:100190000000803F08000000BE922449123EABAA36
:1001A000AA2ABECDCCCC4C3E00000080BEABAAAA91
:1001B000AA3E00000000BF000000803F00000000D9
:1001C00000084178D3BB4387D1133D190E3CC3BD12
:1001D0004282AD2B3E68EC8276BED98FE1A93E4CBF
:1001E00080EFFFBE01C4FF7F3F00000000000D94C0
:1001F00093390D94BB3A0D94363F0D948A3E0D947D
:1002000062590D94B3310D9477270D945C380D9499
:1002100000550D94012B0D9483330D9452260D94AB
:10022000D7310D94FB250D94C6530D94B4310D9424
:1002300016360D94042B0D94F62A0D94F93D0D9469
:1002400036580D945E3B0D94403D0D94525E0D94D6
:10025000FF380D94E5320D94273A0D94E8320D9451
:10026000DB310D9485720D948A560D94493C0D94A2
:10027000AB290D940D6C4E414E494E495459494E8F
:1002800046CDCCCC3D0AD7233C17B7D13877CC2B01
:10029000329595E6241FB14F0A000020410000C8A6
:1002A0004200401C4620BCBE4CCA1B0E5AAEC59D27
:1002B0007400407A10F35A00A0724E18090010A57D
:1002C000D4E80000E87648170000E40B5402000070
:1002D000CA9A3B000000E1F50500008096980000F6
:1002E0000040420F000000A086010000001027001F
:1002F000000000E803000000006400000000000AA5
:1003000000000000000100000000002C76D888DC0E
:10031000674F0823DFC1DFAE59E1B1B796E5E3E4EB
:1003200053C63AE651997696E8E6C28426EB898C64
:100330009B62ED407C6FFCEFBC9C9F40F2BAA56FC6
:10034000A5F490055A2AF75C936B6CF9676DC11B95
:10035000FCE0E40D47FEF520E6B500D0ED902E035D
:1003600000943577050080841E080000204E0A00A6
:100370000000C80C333333330F986E12831141EFF2
:100380008D2114893BE65516CFFEE6DB18D1844B50
:10039000381BF77C1D901DA4BBE424203284725EC0
:1003A000228100C9F124ECA1E53D27434F4D4D5575
:1003B0004E49434154494F4E0044525952554E0004
:1003C0004552524F525300494E464F004543484F05
:1003D00000536C6565702E2E2E00205A3A200020A6
:1003E000593A200042656420583A20004D657368F0
:1003F00020706F696E742063616E6E6F7420626529
:10040000207265736F6C7665640A004E6F206D6FA5
:1004100076652E00456E642066696C65206C697394
:10042000740A00426567696E2066696C65206C69B4
:1004300073740A004D313235005344207072696E76
:1004400074696E67206279746520004E6F74205362
:1004500044207072696E74696E670A0046696C6543
:100460002064656C657465643A0044656C65746904
:100470006F6E206661696C65642C2046696C653A14
:1004800020006F70656E206661696C65642C204683
:10049000696C653A20005072696E742074696D65EC
:1004A0003A2000CC03C703C003B903AB036F6666F1
:1004B0000044454255473A004B494C4C45442E2098
:1004C000004D4B3220436C6F6E65207232204F66B8
:1004D000662E0053657474696E6720547261766588
:1004E0006C20416363656C65726174696F6E3A205C
:1004F0000053657474696E67205265747261637429
:1005000020416363656C65726174696F6E3A2000A7
:1005100053657474696E67205072696E742041630C
:1005200063656C65726174696F6E3A20005365741F
:1005300074696E67205072696E7420616E64205415
:10054000726176656C20416363656C657261746984
:100550006F6E3A2000205A00205900580020204D8C
:1005600061783A2000205A00205900580020204D80
:10057000696E3A20004F666600536F667420656EA0
:100580006473746F70733A2000000136372603FFDE
:100590003C3D380EFF2E303E12FFFF0C0809FFFFD6
:1005A000FF1A1C18FFFF08440AFF4324221EFFFF06
:1005B000FFFFFFFF50726F6265205A204F6666731F
:1005C00065743A200020643A0020693A0020703AAD
:1005D0000020643A0020693A0020703A0043290A5A
:1005E0000061626C656420286D696E2074656D70B1
:1005F0002000436F6C6420657874727564657320A5
:1006000061726520004B64200023646566696E6535
:10061000202044454641554C545F004B692000233F
:10062000646566696E65202044454641554C545FBB
:10063000004B70200023646566696E652020444588
:100640004641554C545F00504944204175746F74C5
:10065000756E652066696E697368656421205075E2
:100660007420746865206C617374204B702C204B6F
:100670006920616E64204B6420636F6E7374616ED9
:1006800074732066726F6D2062656C6F7720696E7F
:10069000746F20436F6E66696775726174696F6EFF
:1006A0002E680A00504944204175746F74756E6558
:1006B000206661696C6564212074696D656F75746D
:1006C0000A00544845524D414C2052554E41574125
:1006D0005900546865726D616C2052756E61776166
:1006E000790048656174696E67206661696C65644C
:1006F0000048656174696E67206661696C656400B5
:10070000504944204175746F74756E652066616947
:100710006C6564212054656D7065726174757265D5
:1007200020746F6F20686967680A00204B643A2064
:1007300000204B693A2000204B703A20000A2043E9
:100740006C617373696320504944200A002054751A
:100750003A2000204B753A2000206D61783A200045
:10076000206D696E3A200020643A200020626961A1
:10077000733A20004F66660A00466164652048654A
:10078000696768742000426564204C6576656C6911
:100790006E6720004661696C656420746F20656E29
:1007A00061626C6520426564204C6576656C696E9B
:1007B000670A0075626C2E73746F726167655F7390
:1007C0006C6F74203D200075626C2E6D6573685FE0
:1007D00069735F76616C6964203D20003F557365E5
:1007E000203020746F20003F496E76616C69642070
:1007F00073746F7261676520736C6F742E0A003FAB
:10080000454550524F4D2073746F72616765206E7D
:100810006F7420617661696C61626C652E0A004DAF
:1008200065736820706F696E742063616E6E6F749B
:10083000206265207265736F6C7665640A004D34C2
:10084000323120696E636F727265637420706172F9
:10085000616D657465722075736167650A004F6626
:100860006673657473206170706C696564004572AD
:10087000723A20546F6F206661722100546F6F20AE
:100880006661722066726F6D207265666572656E54
:10089000636520706F696E740A003A2000207A5FE9
:1008A0006D696E3A20202D3130207A5F6D61783A83
:1008B000202031300A0050726F6265205A204F6646
:1008C00066736574004175746F0020452F443D00C8
:1008D000416476616E6365204B3D004E6F2063611D
:1008E0007365206C696768740A0041637469766592
:1008F0002045787472756465723A2000556E6B6E8F
:100900006F776E20636F6D6D616E643A2022004DCB
:100910006573682056616C69646174696F6E2053F9
:10092000746F707065642E00696E206D6F76655F00
:10093000746F282920666565645F76616C75652033
:10094000666F722058593A004C656176696E67206F
:10095000473236004732362048656174696E672039
:100960004E6F7A7A6C652E00473236204865617486
:10097000696E67204265642E00446F6E6520507278
:10098000696D696E6700446F6E65205072696D69AC
:100990006E67004669786564204C656E67746820F0
:1009A0005072696D652E00557365722D436F6E74BC
:1009B000726F6C6C6564205072696D65002C2065E7
:1009C000793D0029202D3E202865783D002C20739C
:1009D000793D0020436F6E6E656374696E672077A2
:1009E00069746820766572746963616C206C696EE5
:1009F00065202873783D002C2065793D0029202D45
:100A00003E202865783D002C2073793D0020436FFF
:100A10006E6E656374696E67207769746820686FAD
:100A200072697A6F6E74616C206C696E65202873D0
:100A3000783D004C656176696E6720473236002C40
:100A40002079693D00202020446F696E672063692A
:100A500072636C652061743A202878693D003F53C9
:100A6000706563696669656420582C5920636F6FEF
:100A70007264696E617465206F7574206F662062A0
:100A80006F756E64732E0A003F2852296570656188
:100A9000742076616C7565206E6F7420706C617562
:100AA0007369626C653B206D7573742062652061AB
:100AB00074206C6561737420312E0A003F53706599
:100AC000636966696564206E6F7A7A6C6520746507
:100AD0006D7065726174757265206E6F7420706CD4
:100AE00061757369626C652E0A003F5370656369B6
:100AF000666965642066696C616D656E74207369F2
:100B00007A65206E6F7420706C61757369626C65B4
:100B10002E0A003F537065636966696564207072D0
:100B2000696D65206C656E677468206E6F742070E7
:100B30006C61757369626C652E0A003F5370656362
:100B40006966696564206E6F7A7A6C652073697A6C
:100B500065206E6F7420706C61757369626C652EB0
:100B60000A003F5370656369666965642052657465
:100B700072616374696F6E204D756C7469706C6915
:100B80006572206E6F7420706C61757369626C653C
:100B90002E0A003F52657472616374696F6E204D56
:100BA000756C7469706C696572206D757374206200
:100BB00065207370656369666965642E0A003F533A
:100BC0007065636966696564206C61796572206827
:100BD0006569676874206E6F7420706C61757369E5
:100BE000626C652E0A003F537065636966696564CF
:100BF000206265642074656D7065726174757265DC
:100C0000206E6F7420706C61757369626C652E0A5A
:100C10000047323620636F6D6D616E6420737461BE
:100C2000727465642E2057616974696E6720666FFF
:100C300072206865617465722873292E0A0025691F
:100C4000730025696D202569730025696820256971
:100C50006D20256973002569642025696820256950
:100C60006D2025697300256979202569642025692F
:100C7000682025696D20256973004C696E65204EDA
:100C8000756D626572206973206E6F74204C61739C
:100C900074204C696E65204E756D6265722B312C27
:100CA000204C617374204C696E653A20004B494CAE
:100CB0004C45442E200053544F505045442E2000A4
:100CC0005072696E7465722073746F707065642001
:100CD00064756520746F206572726F72732E204682
:100CE000697820746865206572726F7220616E6425
:100CF00020757365204D39393920746F2072657302
:100D0000746172742E202854656D706572617475FB
:100D100072652069732072657365742E2053657443
:100D200020697420616674657220726573746172E3
:100D300074696E67290A004E6F20436865636B73A0
:100D4000756D2077697468206C696E65206E756DAD
:100D50006265722C204C617374204C696E653A2078
:100D600000636865636B73756D206D69736D617485
:100D700063682C204C617374204C696E653A2000C6
:100D80004D313130004D3331005344207265616480
:100D9000206572726F720A00446F6E65207072690E
:100DA0006E74696E672066696C650A0020496E760C
:100DB000616C6964206578747275646572200000E6
:100DC0000080BF00005CC20000000000007B430008
:100DD00000574300005C43486F6D65202573257301
:100DE0002573206669727374002066697273740AD1
:100DF000005A0059005800486F6D65200050726F0E
:100E000062696E67206661696C65640A0050726F82
:100E100062696E67206661696C656400205A3A20D9
:100E20000020593A200042656420583A2000473299
:100E300038205A20466F7262696464656E0A004702
:100E40003238205A20466F7262696464656E000011
:100E5000002110422063308440A550C660E770082E
:100E60008129914AA16BB18CC1ADD1CEE1EFF131B5
:100E700012100273325222B5529442F772D662397E
:100E80009318837BB35AA3BDD39CC3FFF3DEE36205
:100E900024433420040114E664C774A44485546ACE
:100EA000A54BB528850995EEE5CFF5ACC58DD55395
:100EB00036722611163006D776F6669556B4465B1E
:100EC000B77AA719973887DFF7FEE79DD7BCC7C465
:100ED00048E5588668A7784008611802282338CC6E
:100EE000C9EDD98EE9AFF9488969990AA92BB9F5F5
:100EF0005AD44AB77A966A711A500A333A122AFDBE
:100F0000DBDCCBBFFB9EEB799B588B3BBB1AABA6C4
:100F10006C877CE44CC55C222C033C600C411CAE0D
:100F2000ED8FFDECCDCDDD2AAD0BBD688D499D97D4
:100F30007EB66ED55EF44E133E322E511E700E9F5D
:100F4000FFBEEFDDDFFCCF1BBF3AAF599F788F8824
:100F500091A981CAB1EBA10CD12DC14EF16FE180F5
:100F600010A100C230E3200450254046706760B9EC
:100F7000839893FBA3DAB33DC31CD37FE35EF3B145
:100F8000029012F322D2323542145277625672EA3C
:100F9000B5CBA5A89589856EF54FE52CD50DC5E295
:100FA00034C324A01481046674476424540544DBCC
:100FB000A7FAB79987B8975FE77EF71DC73CD7D3E5
:100FC00026F2369106B01657667676154634564C9C
:100FD000D96DC90EF92FE9C899E9898AB9ABA94435
:100FE00058654806782768C018E1088238A3287D2C
:100FF000CB5CDB3FEB1EFBF98BD89BBBAB9ABB7585
:101000004A545A376A167AF10AD01AB32A923A2EFB
:10101000FD0FED6CDD4DCDAABD8BADE89DC98D26D4
:101020007C076C645C454CA23C832CE01CC10C1F0B
:10103000EF3EFF5DCF7CDF9BAFBABFD98FF89F1724
:101040006E367E554E745E932EB23ED10EF01E7CEF
:101050003C3E5E2B3D3F2F5B5D3B2C2A225C0045D6
:1010600072726F722077726974696E6720746F2074
:10107000454550524F4D210A0024F4D43050C38EC0
:1010800020C2A24017828B7011127A910D816CD907
:101090000AA861E108C7586607615143061E4B5D07
:1010A00005C145A7041A411104093D98037139315E
:1010B000034036DB0265339102D4305402802E1D8A
:1010C00002632CEE01752AC501B028A0011027810A
:1010D000018F2564012B244B01E0223401AC211F38
:1010E000018D200D01801FFC00841EED00971DDF87
:1010F00000B81CD200E61BC600201BBC00641AB25C
:1011000000B219A8000A19A0006A189900D1179115
:101110000040178B00B516840031167E00B3157998
:10112000003A157300C7146F0058146A00EE136676
:10113000008813630025135E00C7125B006C125712
:101140000015125400C111510070114F0021114BB4
:1011500000D61049008D104700461044000210428E
:1011600000C00F4000800F3E00420F3C00060F3BC6
:1011700000CB0E3800930E37005C0E3500270E347E
:1011800000F30D3200C10D3100900D3000600D2EC6
:1011900000320D2D00050D2C00D90C2B00AE0C29B2
:1011A00000850C29005C0C2700350C27000E0C264E
:1011B00000E80B2400C40B2400A00B23007D0B23AC
:1011C000005A0B2100390B2100180B2000F80A1FD0
:1011D00000D90A1E00BB0A1E009D0A1D00800A1DC0
:1011E00000630A1C00470A1B002C0A1B00110A1A84
:1011F00000F7091A00DD091900C4091900AB091923
:1012000000920917007B091800630917004C0916A2
:101210000036091600200916000A091500F5081500
:1012200000E0081400CC081400B8081400A4081446
:1012300000900813007D0812006B08130058081274
:10124000004608120034081100230811001208118A
:101250000001081100F0071000E0071000D007108F
:1012600000C0071000B0070F00A107100091070E83
:101270000083070F0074070F0065070E0057070E65
:101280000049070E003B070D002E070E0020070D3A
:101290000013070D0006070D00F9060C00ED060D02
:1012A00000E0060C00D4060C00C8060C00BC060CBE
:1012B00000B0060C00A4060B0099060C008D060B6E
:1012C0000082060B0077060B006C060B0061060A15
:1012D0000057060B004C060A0042060A0038060AB0
:1012E000002E060A0024060A001A060A0010060943
:1012F0000007060A00FD050900F4050900EB0509D1
:1013000000E2050900D9050900D0050900C7050953
:1013100000BE050900B5050800AD050800A50509D2
:10132000009C050800940508008C05080084050849
:10133000007C050800740508006C050700650508B9
:10134000005D050700560508004E05070047050724
:10135000004005080038050700310507002A050789
:1013600000230507001C050600160507000F0507EA
:10137000000805060002050700FB040600F5040747
:1013800000EE040600E8040600E2040700DB0406A1
:1013900000D5040600CF040600C9040600C30406F5
:1013A00000BD040600B7040600B1040500AC040645
:1013B00000A6040600A00405009B04060095040591
:1013C00000900406008A04050085040500800406D8
:1013D000007A04050075040500700405006B04051F
:1013E0000066040500610405005C0405005704055F
:1013F00000520405004D040500480405004304059F
:10140000003E0404003A04050035040500300404DD
:10141000002C04050027040400230405001E040416
:10142000001A04040016040500110404000D04044D
:1014300000090405000404040000040400FC030483
:1014400000F8030400F4030400F0030400EC0304B8
:1014500000E8030400E4030400E0030400DC0304E8
:1014600000D8030400D4030400D0030400CC030418
:1014700000C8030300C503030024F404D9201BC4DF
:101480000C5C0E9804C4095F0265077101F405F94C
:1014900000FB04B30048048700C1036900580355EA
:1014A0000003034500BE023A008402310053022AC1
:1014B000002902250004022000E4011C00C80119D3
:1014C00000AF01170098011400840113007101108E
:1014D000006101100051010E0043010D0036010BA7
:1014E000002B010B0020010B00150109000C010964
:1014F0000003010800FB000800F3000800EB0007F0
:1015000000E4000600DE000600D8000600D2000657
:1015100000CC000500C7000500C2000500BD0004A6
:1015200000B9000400B5000400B1000400AD0004DF
:1015300000A9000400A5000300A20003009F00040E
:10154000009B000300980003009500020093000335
:1015500000900003008D0002008B00030088000251
:10156000008600020084000300810002007F000268
:10157000007D0002007B000200790002007700017C
:101580000076000200740002007200010071000287
:10159000006F0002006D0001006C0002006A000193
:1015A000006900020067000100660001006500019B
:1015B000006400020062000100610001006000019F
:1015C000005F0002005D0001005C0001005B0001A3
:1015D000005A0001005900010058000100570001A5
:1015E00000560001005500010054000100530000A6
:1015F00000530001005200010051000100500001A1
:10160000004F0001004E0000004E0001004D00019F
:10161000004C0001004B0000004B0001004A00019B
:101620000049000100480000004800010047000197
:101630000046000000460001004500000045000192
:10164000004400010043000000430001004200008C
:101650000042000100410000004100010040000183
:10166000003F0000003F0001003E0000003E00017E
:10167000003D0000003D0001003C0000003C000077
:10168000003C0001003B0000003B0001003A00006C
:10169000003A000100390000003900010038000064
:1016A000003800000038000100370000003700015A
:1016B0000036000000360000003600010035000052
:1016C0000035000000350001003400000034000047
:1016D000003400010033000000330000003300013B
:1016E0000032000000320000003200010031000032
:1016F0000031000000310001003000000030000027
:1017000000300001002F0000002F0000002F00001B
:10171000002F0001002E0000002E0000002E00010E
:10172000002D0000002D0000002D0000002D000104
:10173000002C0000002C0000002C0000002C0001F8
:10174000002B0000002B0000002B0000002B0001EC
:10175000002A0000002A0000002A0000002A0001E0
:1017600000290000002900000029000000290000D5
:1017700000290001002800000028000000280000C7
:1017800000280000002800010027000000270000BA
:1017900000270000002700000027000100260000AD
:1017A00000260000002600000026000000260001A0
:1017B0000025000000250000002500000025000095
:1017C0000025000000250001002400000024000086
:1017D0000024000000240000002400010023000079
:1017E000002300000023000000230000002300006D
:1017F000002300000023000100220000002200005E
:10180000002200000022000000220000002200014F
:101810000021000000210000002100000021000044
:101820000021000000210000002100010020000034
:101830000020000000200000002000000020000028
:10184000002000000020000000200001001F000018
:10185000001F0000001F0000001F0000001F00000C
:10186000001F0000001F0001001E0000001E0000FD
:10187000001E0000001E0000004D38342058205982
:10188000205A2045006265640A002C207379737425
:10189000656D2073746F7070656421204865617494
:1018A00065725F49443A200020706F736974696FF4
:1018B0006E206F7574206F662072616E67652E0AE8
:1018C000003F50726F62652000526573756D696EDE
:1018D00067207072696E74004D4B3220436C6F6EDE
:1018E000652072322072656164792E00436C6963F1
:1018F0006B20746F20726573756D652E2E2E0050EF
:10190000726F7465637465642050696E0A00537465
:10191000616E6461726420446576696174696F6E9A
:101920003A20002052616E67653A2000204D6178B0
:101930003A2000204D696E3A20004D65616E3A20D4
:101940000046696E6973686564210A002072616EE1
:1019500067653A2000206D61783A2000206D696E3D
:101960003A2000207369676D613A2000206D65613F
:101970006E3A20003A207A3A2000206F662000203C
:101980005A00205900205800476F696E6720746F15
:101990003A00436C6F636B776973650A00436F7538
:1019A0006E7465722D0020446972656374696F6E90
:1019B0003A2000202020616E676C653A2000537445
:1019C000617274696E67207261646975733A200090
:1019D000506F736974696F6E696E672074686520F3
:1019E00070726F62652E2E2E0A003F4E756D626515
:1019F00072206F66206C65677320696E206D6F764C
:101A0000656D656E74206E6F7420706C617573699E
:101A1000626C652028302D3135292E0A0059005876
:101A2000003F53616D706C652073697A65206E6F3D
:101A30007420706C61757369626C652028342D3573
:101A400030292E0A004D3438205A2D50726F6265AD
:101A5000205265706561746162696C6974792054A3
:101A60006573740A003F2856296572626F7365209A
:101A70006C6576656C20697320696D706C61757337
:101A800069626C652028302D34292E0A006F6E2E75
:101A90000A006F66662E0A0047323620446562757A
:101AA0006720006D0046696C616D656E742075730A
:101AB00065643A200053746174733A20002C204C02
:101AC0006F6E67657374206A6F623A2000546F749A
:101AD000616C2074696D653A200053746174733AC7
:101AE00020002C204661696C65643A20002C204659
:101AF000696E69736865643A20005072696E747328
:101B00003A200053746174733A200050726568651E
:101B100061742041425320456E64005072656865CF
:101B200061742041425320426564005072656865CB
:101B300061742041425300507265706172650047C4
:101B40003239205031004D31303920532569004D54
:101B50003139302053256900473238004275696CAD
:101B60006420437573746F6D204D65736800426522
:101B7000642054656D70004265642054656D70008A
:101B80004265642054656D7000486F74656E642012
:101B900054656D7000486F74656E642054656D7097
:101BA00000486F74656E642054656D7000427569FD
:101BB0006C64204D657368002E256900473239201A
:101BC00050362043202D00496E666F207363726586
:101BD000656E0048656967687420416D6F756E7445
:101BE0000048656967687420416D6F756E740045C3
:101BF000646974204D65736800496E666F20736375
:101C00007265656E0041646A757374204D65736812
:101C1000204865696768740046696E652054756E72
:101C20006520436C6F7365737400473239205034FC
:101C300020540046696E652054756E6520416C6CB9
:101C40000047323920503420523939392054005558
:101C5000424C20546F6F6C73004732380A4732365B
:101C600020432042256920482569205000496E669E
:101C70006F2073637265656E0056616C6964617490
:101C80006520437573746F6D204D657368005661F0
:101C90006C696461746520414253204D657368002E
:101CA0004732380A4732362043204231303020480C
:101CB00032343020500056616C6964617465205084
:101CC0004C41204D657368004732380A4732362050
:101CD0004320423630204832303020500055424CAC
:101CE00020546F6F6C7300473239204A2569004CCD
:101CF0006576656C204D6573680053696465205096
:101D00006F696E7473005369646520506F696E74F7
:101D100073005369646520506F696E747300554297
:101D20004C20546F6F6C7300496E666F2073637242
:101D300065656E0047726964204D657368204C6567
:101D400076656C696E6700332D506F696E74204C38
:101D50006576656C696E6700473239204A300055F8
:101D6000424C20546F6F6C7300473239205033203F
:101D70005220432E256900473239205033205430F9
:101D800000496E666F2073637265656E004D616E0B
:101D900075616C2046696C6C2D696E004732392084
:101DA0005032204220543000536D617274204669D5
:101DB0006C6C2D696E0046696C6C2D696E20416DEE
:101DC0006F756E740046696C6C2D696E20416D6F85
:101DD000756E74004275696C64204D6573680010FF
:101DE00000C90210012C014001220170011801B04C
:101DF000010E01F00104015002FA00B002F00030BF
:101E000003E600D003DC009004D2007005C800A0F7
:101E100006BE000008B400B009AA00D00BA0006004
:101E20000E960060118C000015820020197800C009
:101E30001D6E00A0226400B0275A00902C500000B4
:101E4000314600E0343C0010383200903A280060FF
:101E50003C1E00A03D1400803E0A00203F000048C8
:101E6000656174696E67206661696C6564004865C8
:101E70006174696E67206661696C6564001000AA10
:101E800003F0013A019002220130031001D0030255
:101E9000017004F7001005ED00B005E5005006DD07
:101EA00000F006D7009007D1003008CC00D008C75A
:101EB000007009C300100ABE00B00ABB00500BB787
:101EC00000F00BB300900CB000D00DAA00100FA5CD
:101ED000005010A00090119B00D0129600B01490FA
:101EE0000090168B0070188500501A8000301C7B03
:101EF00000B01E750030216F00B0236900302664E9
:101F00000010285F00902A5A00702C5500F02E4FC8
:101F10000070314800B0324500F03341007036396E
:101F200000103737005038330090392D00D03A2751
:101F300000B03C1C00503D1700F03D1100903E09E0
:101F400000D03FE5FF4572723A204D494E54454D51
:101F50005020424544004572723A204D494E544546
:101F60004D50004D494E54454D502074726967677D
:101F700065726564004572723A204D415854454D72
:101F80005020424544004572723A204D4158544514
:101F90004D50004D415854454D502074726967674B
:101FA0006572656400202F002042403A0020403ACC
:101FB00000556E696669656420426564204C6576EB
:101FC000656C696E67006163746976652E0A0069E5
:101FD0006E002053797374656D2076312E30312078
:101FE00000202020202E202020004E414E00435370
:101FF000563A0A0A004C43443A0A0A003A0A0A00CE
:1020000020666F7220000A42656420546F706F670B
:102010007261706879205265706F7274003F4D650F
:10202000736820746F6F2062696720666F72204545
:102030004550524F4D2E0A0020204E6F7A7A6C6523
:102040003A200066696C616D656E74206C6F616426
:10205000005761697420666F72005052494E5420D7
:102060005041555345440020204E6F7A7A6C653AB2
:10207000200066696C616D656E7420657874727598
:102080006465005761697420666F72005052494E52
:10209000542050415553454400746F207265737548
:1020A0006D65005761697420666F72207072696E89
:1020B00074005052494E54205041555345440043FA
:1020C0006172642072656D6F76656400436172644D
:1020D00020696E73657274656400526573656E6421
:1020E0003A20006F6B0020746F6F206C6F6E67205A
:1020F000657874727573696F6E2070726576656E3F
:102100007465640A0020636F6C642065787472756E
:1021100073696F6E2070726576656E7465640A000F
:10212000627573793A2070617573656420666F72A9
:1021300020696E7075740A00627573793A20706157
:102140007573656420666F7220757365720A00622C
:102150007573793A2070726F63657373696E670A7D
:10216000004D363030004B494C4C45442E20004B3E
:10217000494C4C20636175736564206279204B493A
:102180004C4C20627574746F6E2F70696E0A004B30
:10219000494C4C45442E20004B494C4C2063617502
:1021A00073656420627920746F6F206D7563682099
:1021B000696E6163746976652074696D65202D2090
:1021C00063757272656E7420636F6D6D616E643AD3
:1021D0002000506C656173652072657365740050F2
:1021E00052494E5445522048414C54454400507287
:1021F000696E7465722068616C7465642E206B6909
:102200006C6C28292063616C6C6564210A000000F5
:1022100080BF00005CC2000000000000A04200007F
:10222000A04200002041000000005761726E696EFC
:10223000673A20486F6D696E672042756D70204463
:10224000697669736F72203C20310A000202020035
:10225000004040000040400000004000007C43007F
:1022600000874300005C43FFFFFF4D3630302048BD
:102270006F74656E6420746F6F20636F6C6420747C
:102280006F206368616E67652066696C616D656E5D
:10229000740A0056652D6A65726B0056652D6A6575
:1022A000726B0056652D6A65726B00567A2D6A65F1
:1022B000726B00567A2D6A65726B0056792D6A65CD
:1022C000726B0056792D6A65726B0056792D6A65BE
:1022D000726B0056782D6A65726B0056782D6A65B0
:1022E000726B0056782D6A65726B004D6F74696F62
:1022F0006E004573746570732F6D6D004573746562
:1023000070732F6D6D005A73746570732F6D6D004F
:102310005A73746570732F6D6D00597374657073A3
:102320002F6D6D005973746570732F6D6D00587348
:10233000746570732F6D6D005873746570732F6DB5
:102340006D004D6F74696F6E004F6666004F6E20B2
:1023500000456E6473746F702061626F7274005315
:10236000746570732F6D6D004A65726B0041636315
:10237000656C65726174696F6E0056656C6F636938
:102380007479005A204F666673657400436F6E74EB
:10239000726F6C0046696C2E204469612E0046699C
:1023A0006C2E204469612E004F6666004F6E20003F
:1023B0004520696E206D6D3300416476616E636502
:1023C000204B00416476616E6365204B004164766A
:1023D000616E6365204B00436F6E74726F6C0043D7
:1023E000616E6E6F7420656E7465722073756264C1
:1023F00069723A2000052E2E004D61696E0000457D
:102400007874727564656420746F74616C3A20002E
:10241000256C642E25696D00004C6F6E67657374C2
:10242000206A6F622074696D653A200000546F74F1
:10243000616C207072696E742074696D653A200059
:10244000436F6D706C657465643A20005072696EFC
:102450007420436F756E743A200050726568656130
:10246000742041425320636F6E6600507265686548
:10247000617420504C4120636F6E66005049442DBA
:1024800044005049442D44005049442D49005049CE
:10249000442D49005049442D50005049442D5000CE
:1024A00020022046616374002002204661637400AC
:1024B0002002204D6178002002204D61780020022A
:1024C000204D6178002002204D696E002002204DD1
:1024D000696E002002204D696E004F6666004F6EE7
:1024E00020004175746F74656D700046616E2073D5
:1024F000706565640046616E2073706565640046B2
:10250000616E2073706565640042656400426564B5
:10251000004E6F7A7A6C65004E6F7A7A6C65004374
:102520006F6E74726F6C0053746F72652073657494
:1025300074696E67730042656400426564004265B9
:1025400064004E6F7A7A6C65004E6F7A7A6C650023
:102550004E6F7A7A6C650046616E207370656564B3
:102560000046616E2073706565640046616E20737D
:10257000706565640054656D70657261747572652F
:10258000005654726176206D696E00565472617601
:10259000206D696E005654726176206D696E00562A
:1025A0006D696E00566D696E00566D696E00566DF0
:1025B0006178204500566D6178204500566D617840
:1025C000204500566D6178205A00566D6178205A7A
:1025D00000566D6178205A00566D6178205900567A
:1025E0006D6178205900566D6178205900566D61F3
:1025F00078205800566D6178205800566D6178201B
:1026000058004D6F74696F6E00416D617820450010
:10261000416D6178204500416D6178205A00416D1F
:102620006178205A00416D6178205900416D6178D0
:10263000205900416D6178205800416D6178205823
:1026400000412D74726176656C00412D7472617663
:10265000656C00412D7265747261637400412D7266
:1026600065747261637400416363656C0041636308
:10267000656C004D6F74696F6E0000000000010210
:1026800004040000001C1C0C0404040201000000EF
:1026900000000408100000000000001C1F11111FA2
:1026A00000000006191803130C00040E1F041C0080
:1026B0000000000E1315110E00001C10181705065F
:1026C0000500040A0A0A0A11110E0C12120C00006D
:1026D0000000001F1511151F000025753A25303226
:1026E0007500253032753A25303275002D2D2D00BC
:1026F0005344005A00590058004732380A473120E5
:102700005A3138300A4731205A323130204635307C
:10271000300A4731205A35300A47323800473238BC
:102720000A4732392050310A47323920503220428C
:1027300020540A473239204620352E300A47323994
:1027400020410A4732392053310A4D353030004399
:10275000616C696272617465206265640043616CDA
:10276000696272617465205A2061786973004D61F5
:10277000696E00000020002300260029002C002F95
:1027800000320000010000030106010901050505F2
:1027900005070508080808020202020A0A080804D8
:1027A0000404040101010101010101030303030306
:1027B000030303040707070C0C0C0C0C0C0C0C0295
:1027C00002020206060606060606060B0B0B0B0B9C
:1027D0000B0B0B0102102020080810204010204095
:1027E00080020102010804020101020408102040D5
:1027F00080804020100804020180040201804020F3
:10280000100804020108040201010204081020401B
:1028100080010204081020408000000A0B02090C0D
:102820000D0E080703040100000000000000000076
:102830000000000000000000000000000000000098
:102840000000000000121110000000000000000055
:102850000000000000000000000000000000004B2D
:10286000494C4C45442E2000202D20496E76616C49
:102870006964206578747275646572206E756D6226
:10288000657220210A002D2D2D2D2D2D007C4D61EE
:10289000726C696E7C002D2D2D2D2D2D00687474A9
:1028A000703A2F2F6D61726C696E66772E6F72674A
:1028B00000687474703A2F2F6D61726C696E667760
:1028C0002E6F72670020312E312E38002020506C80
:1028D000616E6E6572427566666572427974657383
:1028E0003A20002046726565204D656D6F72793A19
:1028F0002000436F6D70696C65643A204665622004
:10290000313420323031380A00207C20417574681F
:102910006F723A2071336F6B0A00323031372D31CC
:10292000322D32352031323A303000204C61737410
:1029300020557064617465643A2000312E312E3860
:102940000A004D61726C696E0020536F6674776186
:1029500072652052657365740A002057617463685C
:10296000646F672052657365740A002042726F7746
:102970006E206F75742052657365740A0020457867
:102980007465726E616C2052657365740A00506FD5
:1029900077657255700A0073746172740A0065720B
:1029A000726F722077726974696E6720746F206627
:1029B000696C650A00456E6473746F7073202563DB
:1029C00020256320256320256300205A3A002059E2
:1029D0003A0020583A00656E6473746F7073206813
:1029E00069743A2000446F6E6520736176696E6782
:1029F0002066696C652E0A004D323900290A0020D4
:102A000062797465733B206372632000536574744C
:102A1000696E67732053746F726564202800554295
:102A20004C2053797374656D207265736574282921
:102A30000A00206C6F616465642066726F6D20739C
:102A4000746F726167652E0A004D65736820002EF1
:102A50000A0020696E697469616C697A65642E0A7E
:102A60000A003F43616E277420656E61626C6520C9
:102A700000202863616C63756C6174656429210AA8
:102A80000020213D2000454550524F4D20435243E8
:102A9000206D69736D61746368202D202873746FD5
:102AA000726564292000290A002062797465733BED
:102AB0002063726320002073746F726564207365F5
:102AC0007474696E67732072657472696576656483
:102AD000202800204D61726C696E3D563437290AFA
:102AE0000028454550524F4D3D00454550524F4DF1
:102AF0002076657273696F6E206D69736D617463A2
:102B0000682000206D65736820736C6F747320619A
:102B10007661696C61626C652E0A003F496E766170
:102B20006C696420736C6F742E0A0045256920253A
:102B300073004D4B3220436C6F6E652072322072F1
:102B4000656164792E006F6B0048656174696E671A
:102B500020646F6E652E0020573A004525692025B8
:102B600073004D4B3220436C6F6E652072322072C1
:102B7000656164792E0042656420646F6E652E0085
:102B800020573A004265642048656174696E672E7B
:102B9000004D3131332053004D31343520533C69E1
:102BA0006E6465783E206F7574206F662072616E6A
:102BB00067652028302D31290A00205A3A00205913
:102BC0003A0020436F756E7420583A0020453A0051
:102BD000205A3A0020593A00583A004361703A00AE
:102BE000454D455247454E43595F5041525345521A
:102BF00000434153455F4C494748545F425249475F
:102C000048544E45535300544F47474C455F4C4939
:102C10004748545300534F4654574152455F504F15
:102C2000574552004255494C445F50455243454E2A
:102C300054004C4556454C494E475F444154410071
:102C40005A5F50524F4245004155544F4C455645EE
:102C50004C005052494E545F4A4F420050524F4729
:102C600052455353004155544F5245504F52545FB3
:102C700054454D5000564F4C554D45545249430014
:102C8000454550524F4D0053455249414C5F584FB6
:102C90004E5F584F4646004649524D574152455F98
:102CA0004E414D453A4D61726C696E20312E312E88
:102CB0003820284769746875622920534F5552435C
:102CC000455F434F44455F55524C3A687474707386
:102CD0003A2F2F6769746875622E636F6D2F4D618F
:102CE000726C696E4669726D776172652F4D6172A3
:102CF0006C696E2050524F544F434F4C5F564552B3
:102D000053494F4E3A312E30204D414348494E45AC
:102D10005F545950453A4D4B3220436C6F6E6520DD
:102D200072322045585452554445525F434F554ED8
:102D3000543A3120555549443A63656465326132ED
:102D4000662D343161322D343734382D39623132C9
:102D50002D6335356336326633363766660A002FA3
:102D60002F20004D65736820696E76616C6964611F
:102D70007465642E0A00496E666F20736372656520
:102D80006E00496E76616C696461746520436C6F96
:102D90007365737400473239204900496E76616C5F
:102DA000696461746520416C6C00436F6E74696E78
:102DB000756520426564204D65736800473239208F
:102DC000503120430046696C6C2D696E204D65734F
:102DD00068004275696C6420436F6C64204D6573B4
:102DE00068004732380A473239205031004275694D
:102DF0006C6420437573746F6D204D657368004279
:102E000075696C6420414253204D657368004732F8
:102E1000380A4D31393020533130300A4D31303994
:102E200020533234300A4732392050310A4D313084
:102E3000342053300A4D313430205330004275690C
:102E40006C6420504C41204D657368004732380A4D
:102E50004D313930205336300A4D3130392053321C
:102E600030300A4732392050310A4D313034205346
:102E7000300A4D3134302053300055424C20546FCD
:102E80006F6C73004D313137204D657368202569B3
:102E90002073617665642E0047323920532569001E
:102EA0004D313137204D657368202569206C6F6185
:102EB0006465642E00473239204C256900536176E1
:102EC0006520426564204D657368004C6F61642025
:102ED000426564204D657368004D656D6F727920A1
:102EE000536C6F74004D656D6F727920536C6F7405
:102EF000004D656D6F727920536C6F7400496E6977
:102F00007469616C697A6520454550524F4D004E99
:102F10006F2073746F7261676500556E69666965CD
:102F20006420426564204C6576656C696E67004874
:102F30006F6D696E672058595A00473239205034F6
:102F400020582573205925732052256900202D2DE6
:102F50002D2D2D004D343238005072656865617436
:102F600020504C4100436F6F6C646F776E00436874
:102F7000616E67652066696C616D656E7400507284
:102F80006568656174204142530044697361626CF5
:102F900065207374657070657273004D383400532A
:102FA000657420686F6D65206F6666736574730065
:102FB000556E696669656420426564204C65766576
:102FC0006C696E6700486F6D65205A004732382083
:102FD0005A00486F6D652059004732382059004823
:102FE0006F6D652058004732382058004175746F66
:102FF00020686F6D6500473238004D6F766520613F
:10300000786973004D61696E004D6F7665205A00D6
:103010004D6F76652058004D6F76652059004D6FD5
:103020007665205A0045787472756465720045783B
:10303000747275646572004D6F7665205A004D6F2D
:1030400076652059004D6F76652058005072657086
:1030500061726500496E697469616C697A652045C1
:103060004550524F4D00436F6E74726F6C00526545
:1030700073746F7265206661696C73616665004C7C
:103080006F61642073657474696E677300496E695B
:103090007469616C697A6520454550524F4D005303
:1030A000746F72652073657474696E677300466926
:1030B0006C616D656E74004D6F74696F6E00546560
:1030C0006D7065726174757265004D61696E005353
:1030D000442063617264206F6B0A006F70656E52EA
:1030E0006F6F74206661696C65640A00766F6C7539
:1030F0006D652E696E6974206661696C65640A008D
:10310000534420696E6974206661696C0A006175B8
:10311000746F25692E67004D3234004D32332025FF
:10312000730057726974696E6720746F2066696CEA
:10313000653A20006F70656E206661696C65642C6D
:103140002046696C653A20006F70656E2066616983
:103150006C65642C2046696C653A200046696C6594
:103160002073656C65637465640A002053697A6531
:103170003A200046696C65206F70656E65643A2080
:10318000006F70656E206661696C65642C2046690D
:103190006C653A20002066696C653A2000646F69AE
:1031A0006E67006672657368004E6F772000454E4B
:1031B0004420535542524F5554494E450A0022204F
:1031C000706F73002220706172656E743A22005332
:1031D0005542524F5554494E452043414C4C207462
:1031E00061726765743A22004B494C4C45442E206D
:1031F00000747279696E6720746F2063616C6C2053
:103200007375622D67636F64652066696C657320F2
:103210007769746820746F6F206D616E79206C65BA
:1032200076656C732E204D4158206C6576656C2058
:1032300069733A004572726F723A004D6573682087
:10324000736176656420696E20736C6F7420002052
:10325000736C6F743D00206D65736865735F656E98
:10326000643D004532454E443D004D657368206C19
:103270006F616465642066726F6D20736C6F74207B
:103280000048617264636F646564204465666175BB
:103290006C742053657474696E6773204C6F61643D
:1032A00065640A00D0070000D0070000F4010000A8
:1032B000B80B000000004843000048430000F04104
:1032C000000048420000C8420000C8420000C84355
:1032D00000000E4320520020204D393030204B009A
:1032E0004C696E65617220416476616E63653A0A6D
:1032F0000020204D383531205A005A2D50726F620F
:1033000065204F666673657420286D6D293A0A0042
:1033100020440020490020204D333034205000202C
:10332000440020490020204D3330312050005049C6
:10333000442073657474696E67733A0A002046000E
:1033400020420020480020204D3134352053004DCC
:103350006174657269616C20686561747570207054
:103360006172616D65746572733A0A00206D6573F0
:103370006865732E0A0A00454550524F4D2063611F
:103380006E20686F6C6420000A4163746976652062
:103390004D65736820536C6F743A2000205A0020EA
:1033A000204D3432302053003A0A00205A00205970
:1033B0000020204D323036205800486F6D65206F58
:1033C00066667365743A0A00204500205A00205949
:1033D0000020580020420020540020204D3230357B
:1033E000205300416476616E6365643A20533C6DFE
:1033F000696E5F66656564726174653E20543C6DFC
:10340000696E5F74726176656C5F66656564726132
:1034100074653E20423C6D696E5F7365676D656ED5
:10342000745F74696D655F75733E20583C6D61789B
:103430005F78795F6A65726B3E205A3C6D61785F98
:103440007A5F6A65726B3E20453C6D61785F655FAF
:103450006A65726B3E0A0020540020520020204D05
:10346000323034205000416363656C657261746969
:103470006F6E2028756E6974732F7332293A20504D
:103480003C7072696E745F616363656C3E20523C90
:10349000726574726163745F616363656C3E20542E
:1034A0003C74726176656C5F616363656C3E0A00B3
:1034B000204500205A0020590020204D3230312074
:1034C00058004D6178696D756D20416363656C6569
:1034D000726174696F6E2028756E6974732F733210
:1034E000293A0A00204500205A0020590020204D8A
:1034F0003230332058004D6178696D756D206665F6
:10350000656472617465732028756E6974732F73B6
:10351000293A0A00204500205A0020590020204D59
:1035200039322058005374657073207065722075AD
:103530006E69743A0A0020204D3230302044300A3F
:103540000020204D323030204400204469736162F5
:103550006C65640A0046696C616D656E7420736504
:103560007474696E67733A0020204D3134392043FA
:10357000203B20556E69747320696E2043656C731F
:103580006975730A002020473231202020203B201B
:10359000556E69747320696E206D6D0A000A4D6561
:1035A0007368206F6E6C79207061727469616C6CE5
:1035B0007920706F70756C617465642E0A0A002042
:1035C0000A004420636F6E7374616E743A20007257
:1035D0006F746174696F6E206D61747269783A00FE
:1035E0005D0A0062656420706C616E65206E6F72AA
:1035F0006D616C203D205B0020616E642074616B06
:10360000652061206D6561737572656D656E742EE0
:103610000A006D6D20746869636B2E0A0042757331
:10362000696E657373204361726420697320005270
:10363000656D6F76652026206D65617375726520F6
:103640006265640052656D6F7665207368696D0010
:10365000506C616365207368696D2026206D65611B
:103660007375726500506C616365207368696D20C5
:10367000756E646572206E6F7A7A6C65004D657345
:103680006820506F696E74204D6561737572656452
:103690002061743A20000A4D657368206F6E6C7962
:1036A000207061727469616C6C7920706F70756CD8
:1036B000617465642E0A00506C61636520736869EB
:1036C0006D2026206D656173757265004D656173AF
:1036D000757265004D6F76696E6720746F206E6538
:1036E000787400496E76616C6964206D6170207435
:1036F0007970652E0A0A003F2846296164652068B2
:10370000656967687420666F7220426564204C6545
:1037100076656C20436F7272656374696F6E206E9C
:103720006F7420706C61757369626C652E0A0A0093
:103730003F43616E2774206163746976617465200C
:10374000616E64206465616374697661746520618B
:1037500074207468652073616D652074696D652ED1
:103760000A0A00426F7468205820262059206C6F86
:10377000636174696F6E73206D7573742062652068
:103780007370656369666965642E0A0A003F496E55
:1037900076616C696420677269642073697A652058
:1037A000284A292073706563696669656420283238
:1037B0002D39292E0A0A003F285029686173652097
:1037C00076616C756520696E76616C69642028305D
:1037D0002D36292E0A0A003F2856296572626F731A
:1037E00065206C6576656C20697320696D706C610D
:1037F000757369626C652028302D34292E0A0A0001
:103800003F285229657065746974696F6E20636F13
:10381000756E7420696E76616C69642028312B297D
:103820002E0A0A00446F696E672047323900000093
:103830002100240027002A002D0030003300010160
:103840000000040107010A010000220025002800F1
:103850002B002E0031003400020100000501080198
:103860000B0120746F6F206C6F6E67206578747227
:103870007573696F6E2070726576656E7465640A23
:103880000020636F6C6420657874727573696F6E65
:103890002070726576656E7465640A0043616E6EB1
:1038A0006F74206F70656E2073756264697220009A
:1038B000656E7175657565696E6720220065636860
:1038C0006F3A00544845524D414C2052554E415795
:1038D000415900546865726D616C2052756E617754
:1038E00061790000446F6E652E0A003F55736520B4
:1038F0003020746F20003F496E76616C69642073DC
:10390000746F7261676520736C6F742E0A003F4597
:103910004550524F4D2073746F72616765206E6F12
:103920007420617661696C61626C652E0A002C20DE
:10393000592000203B20582000205A2000204A20F7
:10394000004D343231204920004732392049203996
:1039500039390A00446F6E652E0A003F55736520A1
:103960003020746F20003F496E76616C696420736B
:10397000746F7261676520736C6F742E0A003F4527
:103980004550524F4D2073746F72616765206E6FA2
:103990007420617661696C61626C652E0A00473241
:1039A000392050322066696E69736865642E0A009A
:1039B0005859206F757473696465207072696E74EC
:1039C00061626C65207261646975732E0A003F45FF
:1039D00072726F7220696E20427573696E657373BF
:1039E0002043617264206D6561737572656D656EEB
:1039F000742E0A004D616E75616C6C792070726F67
:103A000062696E6720756E726561636861626C657C
:103A1000206D657368206C6F636174696F6E732EBF
:103A20000A00292E0A0A0050726F62696E67204DE3
:103A300065736820506F696E747320436C6F736593
:103A4000737420746F2028004D65736820696E764A
:103A5000616C6964617465642E2050726F62696E76
:103A600067206D6573682E0A004D657368207A655E
:103A7000726F65642E0A0044656661756C7420730C
:103A8000746F7261676520736C6F7420302073658A
:103A90006C65637465642E0A00417474656D70749E
:103AA00020746F2070726F6265206F666620746884
:103AB00065206265642E0A004C6F6164696E672040
:103AC000746573745F7061747465726E2076616C76
:103AD0007565732E0A0A00496E76616C69642074FC
:103AE0006573745F7061747465726E2076616C7555
:103AF000652E20282D3120746F2032290A0A004CAF
:103B00006F636174696F6E7320696E76616C69644E
:103B1000617465642E0A0A00456E74697265204DF1
:103B200065736820696E76616C6964617465642E82
:103B30000A0A004D3530322C204D3530302C204DC6
:103B400035303120696E2074686174206F7264654D
:103B5000722E0A0A003F456E61626C652045455031
:103B6000524F4D20616E6420696E697420776974CC
:103B7000680A005374616E646172642044657669FA
:103B80006174696F6E3A20004D65616E204D6573FA
:103B900068204865696768743A200023206F6620B2
:103BA00073616D706C65733A20005072696E742099
:103BB000706175736564004D31323500004D3234EB
:103BC000005072696E742061626F727465640043A4
:103BD000616C6962726174696F6E004E6F2053444C
:103BE0002063617264005072696E742066726F6D3A
:103BF0002053440053746F70207072696E740052C9
:103C00006573756D65207072696E740050617573AF
:103C100065207072696E740041626F757420507215
:103C2000696E74657200436F6E74726F6C005072CF
:103C300065706172650054756E65005A204F666646
:103C400073657400496E666F2073637265656E00FC
:103C50005A204F6666736574004D3630302042300E
:103C6000004368616E67652066696C616D656E749E
:103C7000005A204F666673657400466C6F77004685
:103C80006C6F770046616E207370656564004661F5
:103C90006E2073706565640046616E2073706565A3
:103CA000640042656400426564004E6F7A7A6C6518
:103CB000004E6F7A7A6C65005370656564005370CE
:103CC000656564005370656564004D61696E005000
:103CD00072656865617420504C4120456E640050E7
:103CE00072656865617420504C41204265640050E3
:103CF00072656865617420504C4100507265706156
:103D00007265004D61782054656D703A2031333012
:103D1000004D696E2054656D703A2035005442653F
:103D2000643A312520626574612033393530004DA5
:103D300061782054656D703A20323935004D696ED6
:103D40002054656D703A20350054303A2041544378
:103D50002031303447542D32005053553A204765B6
:103D60006E657269630050726F746F636F6C3A2096
:103D7000312E3000426175643A20323530303030B7
:103D80000052414D505320312E3400556E69666902
:103D9000656420426564204C6576656C696E6700D9
:103DA0004578747275646572733A2031003230312F
:103DB000372D31322D32352031323A303000312E2C
:103DC000312E38004D61726C696E00687474703AFF
:103DD0002F2F6D61726C696E66772E6F7267004D62
:103DE0004B3220436C6F6E65207232005072696EE8
:103DF00074657220537461747300546865726D69E0
:103E000073746F727300426F61726420496E666FE3
:103E1000005072696E74657220496E666F004D6164
:103E2000696E0020204E6F7A7A6C653A20004261FC
:103E3000636B004D696E696D756D2054656D702002
:103E40006973203138302E0048656174696E6720CF
:103E50006661696C65640045787472756465206D8F
:103E60006F726500526573756D65207072696E744E
:103E700000524553554D45204F5054494F4E533AEB
:103E80000020204E6F7A7A6C653A20006368616E7C
:103E90006765006F66207468652066696C616D6592
:103EA0006E74005761697420666F7220737461725A
:103EB00074005052494E54205041555345440020FF
:103EC000204E6F7A7A6C653A200066696C616D6588
:103ED0006E7420756E6C6F61640057616974206642
:103EE0006F72005052494E54205041555345440082
:103EF00020204E6F7A7A6C653A2000506C656173B1
:103F00006520776169742E2E2E0048656174696E94
:103F100067206E6F7A7A6C65005052494E5420507B
:103F200041555345440020204E6F7A7A6C653A2003
:103F30000068656174206E6F7A7A6C652E0050722D
:103F400065737320627574746F6E20746F005052C5
:103F5000494E54205041555345440020204E6F7A1D
:103F60007A6C653A2000746F20636F6E74696E75A9
:103F7000652E2E2E00616E64207072657373206250
:103F80007574746F6E00496E736572742066696C27
:103F9000616D656E74005052494E54205041555326
:103FA0004544000000004166663E426666AE4299A6
:103FB00099FD426666264300004E439999754399E0
:103FC000998E436666A2433333B6430000CA43CC9E
:103FD000CCDD439999F14333B3024499990C4400E1
:103FE0008016440000C04149925C424992AC426E46
:103FF000DBEA4249921443DBB633436EDB524300A3
:104000000072434992884392249843DBB6A7432425
:1040100049B7436EDBC643B76DD6430000E643495C
:1040200092F543070000060100060006010008059E
:10403000000000080004004D657368204564697441
:104040006F7200446F6E652045646974696E672005
:104050004D6573680A00446F6E6520456469746934
:104060006E67204D6573680046696E652054756EF5
:10407000696E67204D6573680028582C5929206F98
:10408000757473696465207072696E7461626C65C1
:10409000207261646975732E0A004F6666736574D9
:1040A000206F7574206F6620626F756E64732E20AA
:1040B000283020746F2031306D6D290A0A0032409B
:1040C0002D40284023405D0A0062656420706C61C9
:1040D0006E65206E6F726D616C203D205B0020204C
:1040E000443D002020423D004C53462052657375EC
:1040F0006C747320413D00436F756C64206E6F7467
:1041000020636F6D706C657465204C5346210064AC
:104110006F6E650A00496E73756666696369656EE0
:104120007420646174610A004578747261706F6C08
:104130006174696E67206D6573682E2E2E0047329C
:1041400038004F7574707574204D657368204D612B
:1041500070004F6666205072696E7465722042610D
:10416000636B75700047323920532D31004F7574E1
:1041700070757420666F72204353560047323920A1
:104180005431004F757470757420666F7220486FDB
:1041900073740047323920543000556E6966696582
:1041A0006420426564204C6576656C696E67004DDD
:1041B000657368204C6576656C696E670045646957
:1041C00074204D6573680056616C69646174652084
:1041D0004D657368004D616E75616C6C7920427538
:1041E000696C64204D65736800473239204939395C
:1041F000390A47323920503220422054300042756B
:10420000696C64204D65736800556E696669656404
:1042100020426564204C6576656C696E67003720C6
:104220005361766520426564204D657368003620D1
:1042300046696E652054756E6520416C6C0047328E
:1042400039205034205239393920540035205661F4
:104250006C6964617465204D65736800342046693B
:104260006E652054756E6520416C6C0047323920B4
:1042700050342052393939205400332056616C694A
:1042800064617465204D657368003220536D6172FE
:10429000742046696C6C2D696E0031204275696C22
:1042A0006420436F6C64204D657368004732380AA0
:1042B00047323920503100556E6966696564204285
:1042C0006564204C6576656C696E67004F75747027
:1042D00075742055424C20496E666F004732392074
:1042E000570055424C20546F6F6C73004F757470BB
:1042F0007574204D657368204D6170004D6573685D
:104300002053746F72616765004D65736820456462
:10431000697400537465702D42792D537465702053
:1043200055424C004465616374697661746520553B
:10433000424C00473239204400416374697661740D
:10434000652055424C00473239204100507265705B
:10435000617265002073616E6974792063686563BA
:104360006B73207061737365642E0A002020737470
:104370006174653A004B696C6C2070696E206F6ED9
:10438000203A00202000592D41786973204D657333
:104390006820506F696E74732061743A2000202089
:1043A00000582D41786973204D65736820506F69FE
:1043B0006E74732061743A20004D4553485F595F15
:1043C000444953542020004D4553485F585F4449A9
:1043D0005354202000475249445F4D41585F504F8D
:1043E000494E54535F59202000475249445F4D4184
:1043F000585F504F494E54535F582020004D45534D
:10440000485F4D41585F5920202828282828283205
:10441000313529202F203229202B202832313529EF
:10442000202F203229202D20283829293C283231DC
:1044300035202B2038293F282828283231352920BB
:104440002F203229202B202832313529202F2032CD
:1044500029202D20283829293A28323135202B20AF
:10446000382929293D004D4553485F4D41585F5833
:10447000202028282828282832353129202F2032AA
:1044800029202B202832353129202F203229202D98
:1044900020283829293C28323531202B2032352953
:1044A0003F2828282832353129202F203229202B57
:1044B000202832353129202F203229202D2028385C
:1044C00029293A28323531202B2032352929293D16
:1044D000004D4553485F4D494E5F592020282828FC
:1044E00028282832313529202F203229202D202834
:1044F00032313529202F203229202B2038293E28FF
:104500002D3535202B2038293F28282828323135D1
:1045100029202F203229202D202832313529202F03
:10452000203229202B2038293A282D3535202B20E0
:10453000382929293D004D4553485F4D494E5F5864
:10454000202028282828282832353129202F2032D9
:1045500029202D202832353129202F203229202BC7
:104560002038293E282D31202B203235293F28287C
:10457000282832353129202F203229202D20283299
:10458000353129202F203229202B2038293A282D77
:1045900031202B2032352929293D007A70726F6233
:1045A000655F7A6F66667365743A200055424C20E9
:1045B0006F626A65637420636F756E743A200020C1
:1045C0004C6F616465642E004D65736820004E6F0A
:1045D000204D657368204C6F616465642E003A203D
:1045E00000454550524F4D2044756D703A0A0020E9
:1045F00066726F6D2063757272656E74206D65737F
:10460000682E0A005375627472616374696E672064
:104610006D65736820696E20736C6F7420003F5560
:104620007365203020746F20003F496E76616C699D
:10463000642073746F7261676520736C6F742E0AE7
:10464000003F557365203020746F20003F53746F16
:104650007261676520736C6F7420232072657175B9
:10466000697265642E0A003F454550524F4D2073D4
:10467000746F72616765206E6F7420617661696C1A
:1046800061626C652E0A004D65736820456469742B
:10469000696E672053746F707065640066696C6141
:1046A0006D656E743A20007A5F6D696E3A2000790C
:1046B0005F6D696E3A2000785F6D696E3A20005236
:1046C00065706F7274696E6720656E6473746F7065
:1046D000207374617475730A00003101390111246B
:1046E0001FBECFEFD1E2DEBFCDBF00E00CBF13E0B5
:1046F000A0E0B2E0E0E2FDE003E00BBF02C0079003
:104700000D92A43DB107D9F725E1A4EDB3E001C0B6
:104710001D92AF3DB207E1F713E2CEE6D3E200E02F
:1047200006C021970109802FFE010F94ED85CD363B
:10473000D10780E00807A9F70F941B6D0D947F86C1
:104740000C9400002F923F924F925F926F927F9253
:104750008F929F92AF92BF92CF92DF92EF92FF9291
:104760000F931F93CF93DF93CDB7DEB7C558D10911
:104770000FB6F894DEBF0FBECDBF81E090E09093FE
:104780009415809393158091D8158D3409F468C3DE
:10479000843511F40C94EE3B873411F00C94303CCA
:1047A0008091D6159091D7158C31910509F466C189
:1047B00094F48430910509F4E3C024F4029750F195
:1047C0000C944A3C8A31910509F421C14B9709F4B4
:1047D00022C10C944A3C8A32910509F44FC24CF430
:1047E0008D31910509F44FC14E9709F450C10C94D5
:1047F0004A3C8B35910509F4BAC18C35910509F411
:10480000BBC18A35910511F00C944A3C1092E40327
:104810000C944A3C80911902882311F40C944A3C70
:104820004DE9842E42E0942E55EAC52E54E1D52E52
:104830006BE7E62E65E1F62E79E1A72E7EE0B72E36
:1048400000E010E0D4018D914D010E946C4D882351
:1048500071F10E94354DF801E052FC4F2081211189
:1048600004C02091E403222331F0F701208131813B
:104870004281538103C020E030E0A9010F942882D7
:104880000330110559F0D5012D913D914D915C9169
:104890002B013C01C301B2010F942782462F572FF1
:1048A000BC01F60140835183628373830AC0F70120
:1048B00080819181A281B381F60180839183A2835B
:1048C000B3830F5F1F4FF4E0CF0ED11C24E0E20E44
:1048D000F11C34E0A30EB11C0430110509F0B2CF75
:1048E00086E40E949B4D8823C9F00E94354D20E04C
:1048F00030E0A9010F94C783181684F40E94354D47
:1049000020E030E040E752E40F94A2826093290255
:1049100070932A0280932B0290932C02809133147F
:1049200083FD2AC06091B1147091B2148091B314C8
:104930009091B41420918715309188154091891574
:1049400050918A15E0912F11EE23B1F00F94278238
:104950009B01AC0160912111709122118091231172
:10496000909124110F942882609321117093221149
:1049700080932311909324110E94AFA50C944A3C7C
:1049800080E50E949B4D882329F00E940D456B0114
:104990007C0103C0C12CD12C760183E50E949B4D84
:1049A000882361F00E94354D20E030E04AE754E46E
:1049B0000F94BE7B0F940F836B017C010E949E6D50
:1049C00080915102811105C060E081ED93E00E9469
:1049D000289A0E94EC458091420B9091430BA09144
:1049E000440BB091450BC80ED91EEA1EFB1E0E9457
:1049F000FBFDDC01CB018C199D09AE09BF09B7FD98
:104A000002C00C944A3C80E00E942DA0F0CF0E948E
:104A100023510C944A3C41E061E081E00E9437461A
:104A200081110C944A3C80E090E0A0E1B1E48983DC
:104A30009A83AB83BC8380E090E0ACE5B2EC8D83DD
:104A40009E83AF83B88780E090E0A0E2B1E48987DD
:104A50009A87AB87BC8780E50E949B4D882319F01D
:104A60000E94054D01C060E068A3BE016F5F7F4FEB
:104A7000CE0180960F94C3630C944A3C80E00E9460
:104A8000ED4D0C944A3C0F94AE1E0C944A3CC090E1
:104A90007B15D0907C15E0907D15F0907E1588E513
:104AA0000E949B4D811109C020E030E048EC51E4A8
:104AB000C701B6010F94288202C00E94354D68A339
:104AC00079A38AA39BA3C0907F15D0908015E09016
:104AD0008115F090821589E50E949B4D811109C0D6
:104AE00020E030E040E051E4C701B6010F94288295
:104AF00002C00E94354D6B017C0169837A838B83F0
:104B00009C8388A099A0AAA0BBA024EF3DEF4FEB07
:104B100051E4C501B4010F94C78387FF02C00C9410
:104B20004A3C22E430E04AE753E4C501B4010F9463
:104B3000597B181614F40C944A3C2FE632E143E8F2
:104B40005AEBC701B6010F94C78387FF02C00C94CC
:104B50004A3C22E430E046E553E4C701B6010F9435
:104B6000597B181614F40C944A3C0C94513C81E087
:104B70008093E4030C944A3C0E949E6D2DE9222E02
:104B800022E0322E3AE4C32E3BE0D32EE12CF12C6E
:104B900000E010E028961FAE2897D1018D911D01ED
:104BA0000E949B4D882309F453C00E94354D4B0150
:104BB0005C010330110559F0F701E75EF14F2081E8
:104BC0003181428153810F9427824B015C01F701AF
:104BD000E558FA4E2081318142815381C501B401EB
:104BE0000F9427822B013C012DEB37E346E855EB70
:104BF0000F94C78387FD0AC02DEB37E346E855E3E2
:104C0000C301B2010F94597B181614F50330110536
:104C100069F48092871590928815A0928915B092B8
:104C20008A15B1E02896BFAF289712C0A301920160
:104C3000F60160817181828193810F942882D6016F
:104C40006D937D938D939C931397C8010E94244389
:104C50000F5F1F4FB4E0CB0ED11CE4E0EE0EF11C51
:104C60000430110509F099CF2896FFAD2897F1116E
:104C70000F94CC450E940DCE0C944A3C80911902B1
:104C8000882311F40C944A3C89E40E949B4D182F10
:104C9000882321F00E94054DE62E01C0E12C8AE414
:104CA0000E949B4D082F882331F00E94054DF62E5F
:104CB000111104C00BC0F12C1123C1F027E02E15F7
:104CC00010F00C94413FECEEF3E004C035E03F15EA
:104CD000D0F30CC084918F010F5F1F4F882311F414
:104CE0000C944A3C0E942F46F801F4CF0E94E34DF9
:104CF000112351F1EE2DF0E047E04E1558F0EE0F84
:104D0000FF1FEE0FFF1FED51F04C659175918591DE
:104D1000949112C0BF01FF0F880B990B0F945F7B1A
:104D200022E934E249EF51E40F94BE7B20E030E009
:104D300040EC51E40F9428826093A5147093A6145C
:104D40008093A7149093A814002351F1EF2DF0E065
:104D500055E05F1558F0EE0FFF1FEE0FFF1FED55EA
:104D6000F04C659175918591949112C0BF01FF0F30
:104D7000880B990B0F945F7B26E636E64EE152E4F2
:104D80000F94BE7B20E030E040E051E40F94288295
:104D90006093A9147093AA148093AB149093AC14ED
:104DA00080E50E949B4D882319F00E94264D03C088
:104DB00080E50E946C4D882381F11123B1F020E041
:104DC00030E048EC51E46091A5147091A6148091F4
:104DD000A7149091A8140F9427826093A514709340
:104DE000A6148093A7149093A8140023B1F020E098
:104DF00030E040E051E46091A9147091AA148091D0
:104E0000AB149091AC140F9427826093A914709303
:104E1000AA148093AB149093AC1486E40E949B4D2B
:104E2000882309F4A9CD0E94354D6B017C0120E057
:104E300030E0A9010F94C78318160CF09DCD20E037
:104E400030E040E752E4C701B6010F94A2826093BC
:104E5000290270932A0280932B0290932C028CCD0E
:104E60008091D6159091D7158537910509F439C6EB
:104E70000CF0E3C08B34910509F499C40CF059C0CF
:104E80008931910509F485C234F58431910509F41D
:104E900001C294F48131910509F4E9C144F4029707
:104EA00010F00C944A3C0E942D800C944A3C42978E
:104EB00009F469C50C944A3C8631910509F433C262
:104EC0000CF42DC28731910509F433C2489709F4D7
:104ED00046C20C944A3C8F31910509F434C47CF4E9
:104EE0008B31910509F473C20CF463C28C319105C6
:104EF00009F4A9C24E9709F4B0C20C944A3C8A3214
:104F0000910509F44CC44CF48032910509F4B4C302
:104F1000829709F4EEC30C944A3C8033910509F45E
:104F200042C4C19711F00C944A3C0E94D3780C946F
:104F30004A3C8936910509F401C50CF047C0823519
:104F4000910509F417C534F58D34910509F439C478
:104F50000CF431C48E34910509F437C481359105C0
:104F600011F00C944A3C0E94E2900E949E6D0E94B7
:104F7000CC9F10926A141092691468EE73E080E07E
:104F800090E00F942A0560E081EC94E00E94289A5A
:104F90000C944A3C8535910509F4F9C454F48335E1
:104FA000910509F4EBC48435910509F4ECC40C9423
:104FB0004A3C8C35910509F405C58836910511F0F8
:104FC0000C944A3C0E94D6D30C944A3C8E369105F0
:104FD00009F4FFC39CF48B36910509F4C3C40CF4A7
:104FE000BDC48C36910509F481C48D36910511F04C
:104FF0000C944A3C0E9491D10C944A3C8137910513
:1050000009F47CC46CF48F36910509F4E6C380374B
:10501000910511F00C944A3C88EB94E00E94DD9FCE
:105020008237910509F457C58337910511F00C9427
:105030004A3C0E94C6CD0C944A3C8D32A1E09A07AE
:1050400011F40C948F300CF082C0893C910509F466
:10505000A8C5B4F58D37910509F488C4ACF4873739
:10506000910509F44BC50CF445C58837910509F441
:1050700049C58937910511F00C944A3C1092E7100C
:105080001092E6100C944A3C8B39910509F45EC4E9
:105090006CF48C38910509F435C48139910511F00F
:1050A0000C944A3C0E9449CF0C944A3C8E3B91059B
:1050B00009F450C4883C910509F42BC50C944A3C72
:1050C000833D910509F49AC644F58C3C910509F499
:1050D000A0C57CF48B3C910511F00C944A3C79EE10
:1050E000E72E7BE0F72E0DE912E0E4E0DE2ED00E95
:1050F00081C58D3C910509F4F8C58E3C910511F0F0
:105100000C944A3C5DE9C52E52E0D52E67E5E62EAB
:105110006CE0F62E00E010E05FC6823E910509F4D7
:1051200097C754F48C3D910509F439C78D3D91051D
:1051300009F444C70C944A3C8232E1E09E0709F42A
:10514000B6C78C32914009F4C0C70C944A3C8C3AE3
:1051500021E0920711F40C9438380CF042C08039E9
:1051600041E0940711F40C940C36C4F48F32A1E0A2
:105170009A0711F40C94033214F40C94AC3180337C
:10518000E1E09E0711F40C942E318336914011F02A
:105190000C944A3CE4E3F2E30C94C23B8A3921E0EC
:1051A000920709F4A7C384F4813941E0940711F40C
:1051B0000C940F368239914011F00C944A3C80E0F7
:1051C0000E9498420C944A3C843AA1E09A0711F458
:1051D0000C941336853A914011F40C9478370C9462
:1051E0004A3C8C31E2E09E0711F40C943639ECF421
:1051F000853F21E0920711F40C9424394CF4843F4C
:10520000914011F00C944A3C0E9425C80C944A3CF1
:10521000863F51E0950711F40C942739873F914060
:1052200011F40C942A390C944A3C8438B3E09B075F
:1052300011F40C94BE3A7CF48835F2E09F0711F427
:105240000C9499398335934011F00C944A3CEDEB62
:10525000F8E30C944139803A33E0930709F46FC2C4
:10526000873E934011F40C94D93B0C944A3C60E087
:105270008BE094E00E94289A5F988A989FB7F894F0
:10528000809108018E7F809308019FBF47981298F4
:105290000C944A3CE3E2F4E084918F010F5F1F4FCE
:1052A000882321F00E942F46F801F6CF10921714A0
:1052B0001092161440E050E0BA018BE891E10E9490
:1052C000A7618BE1EBE8F1E1DE01159601900D920B
:1052D0008A95E1F78091891190918A119C838B8343
:1052E0008BEF92E09A83898340E050E0BE016F5FCC
:1052F0007F4F83EC93E00F94F61ACE0101960E9443
:10530000C29FE4E1F4E084918F010F5F1F4F882377
:1053100011F40C944A3C0E942F46F801F4CF0E94ED
:105320006CEA0C944A3C10923311109234110C9494
:105330004A3CE091D415F091D5158081882329F05D
:10534000803209F410823196F8CF40E061E080911C
:10535000D4159091D5150E9429E70C944A3C1982E6
:105360001A821B821C8218A219A21AA21BA2809167
:10537000560B882341F040E0BE016F5F7F4FCE01A6
:1053800080960E94A8A40E940CE70F94C2470C9438
:105390004A3C1092331187E091E10E940F6D84E343
:1053A00094E090934410809343100E9481430C94A6
:1053B0004A3C80913411882311F40C944A3C83E5D3
:1053C0000E949B4D81110C94A83C0C944A3C809106
:1053D0003411882351F1E9E3F4E084918F010F5FE8
:1053E0001F4F882321F00E942F46F801F6CF6091CD
:1053F0000D1470910E1480910F14909110144AE0C6
:105400000E9472498FE20E942F46609109147091A8
:105410000A1480910B1490910C144AE00E94724976
:105420008AE00E942F460C944A3CEBE4F4E084911D
:105430008F010F5F1F4F882311F40C944A3C0E9488
:105440002F46F801F4CF40E060E08091D4159091B0
:10545000D5150E9429E70C944A3C80913411882389
:1054600011F40C944A3C8CE593E10E943D658CE577
:1054700093E10E946E651092321110923111E0900A
:10548000D415F090D51580913411882311F40C9423
:105490004A3C0E941EE71D8218861C821B828BEFED
:1054A00092E09A83898387E891E19093A711809392
:1054B000A611D7018C918F3209F067C06FE270E0BE
:1054C000C7010F943C868C010F5F1F4FFE01319680
:1054D0004F010115110509F45EC06FE270E0C801CB
:1054E0000F943C866C01009709F456C00817190701
:1054F00008F052C05C01A01AB10AA501B801CE01A2
:1055000080960F946586E0E2F0E0EC0FFD1FEA0D57
:10551000FB1D10828E01005E1F4FD8018D918D0101
:10552000882319F00E942F46F8CF8AE00E942F4668
:105530006091A6117091A7116115710511F06C5F52
:105540007F4F21E0AE01405E5F4FCE0105960E9485
:105550005B67811112C0BE01605E7F4F82E894E0FC
:105560000F943B128EE20E942F468AE00E942F4643
:10557000C4010E94C29F0C944A3C9092A711809251
:10558000A61186010F5F1F4FA4CF88EA91E1909387
:10559000A7118093A61187016091A6117091A711A0
:1055A0006115710511F06C5F7F4F18A21BA222E0FC
:1055B000A801CE0180960E945B67811102C0F12C88
:1055C00014C0CE0180960F94641A8823C1F361E061
:1055D000CE0180960E94C064009789F325EEFC01FD
:1055E00020831BA20E94695FF82ECE0180960E9444
:1055F000DD45FF2019F1ECE5F4E084917F012FEF08
:10560000E21AF20A882321F00E942F46F701F5CF13
:10561000D8018D918D01882319F00E942F46F8CF73
:105620008AE00E942F4610920D1410920E141092D0
:105630000F14109210140E944BE618C0EAE6F4E032
:1056400084917F01BFEFEB1AFB0A882321F00E94AF
:105650002F46F701F5CFF80181918F01882319F0CA
:105660000E942F46F8CF8EE20E942F46CE0101966F
:105670000E94C29F0C944A3C8091331181110E9478
:105680009E6D80913411882311F40C944A3C80E57E
:105690000E949B4D882319F00E94264D03C080E58F
:1056A0000E946C4D182F482F61E08091D415909185
:1056B000D5150E9429E783E50E949B4D882381F040
:1056C0000E94054DAB01BC0140930D1450930E1484
:1056D00060930F14709310148CE593E10E94A761FE
:1056E0000E940CE711110C944A3C0F94C2470C9491
:1056F0004A3C83E50E946C4D882331F00E94264D80
:10570000809300130E944BE686E40E949B4D882301
:1057100011F40C944A3C0E94054D77FD06C091E0BF
:1057200080E0672B21F490E002C09FEF8FEF909311
:105730000113809302130E944BE60C944A3C0E9492
:10574000D37E0C944A3C87E091E10E94E26C68A30E
:1057500079A38AA39BA3BE016F5F7F4FCE01809682
:105760000E941D4560E0CE0101960E94489AEDEB33
:10577000F8E384918F010F5F1F4F882321F00E946F
:105780002F46F801F6CFBE016F5F7F4F86E994E0A8
:105790000F943B128AE00E942F460C944A3C0E94D0
:1057A0007F7E0C944A3C0E94FB780C944A3C0F94F8
:1057B000C2470C944A3C87E091E10E940F6D0C9423
:1057C0004A3C0F9496170C944A3C0E94AA770C947A
:1057D0004A3C0E94EACF0C944A3C83E50E946C4DFF
:1057E000882359F083E50E949B4D882319F00E947D
:1057F000154D01C080E080933314EDEBF8E3849104
:105800008F010F5F1F4F882321F00E942F46F80160
:10581000F6CFE1EBF4E084918F010F5F1F4F8823F7
:1058200021F00E942F46F801F6CF8091331488238F
:10583000A1F103EAC02E04E0D02EE12CF12C20E0EF
:105840008091331490E00E2C02C0959587950A94B0
:10585000E2F780FF17C0BB24B394B20E222319F0E5
:105860008CE20E942F46F60125913491F901849132
:1058700089010F5F1F4F882321F00E942F46980156
:10588000F5CF2B2DFFEFEF1AFF0A32E0C30ED11C2C
:1058900045E0E416F104A1F624C0EDEAF4E08491B9
:1058A0008F010F5F1F4F8823E1F00E942F46F80100
:1058B000F6CFC0906B10D0906C10E0906D10F0900F
:1058C0006E1020E030E0A901C701B6010F94597BAA
:1058D000882311F40C94B43B42E0C701B6010E9446
:1058E000F2498AE00E942F460C944A3C10924802EA
:1058F0000C944A3C0E94EACC0C944A3C0E94C0CFD3
:105900000C944A3C8091331483FF02C00C944A3CAF
:1059100083E50E949B4D882311F40C944A3C0E941D
:10592000354D0F940A836338710514F062E870E016
:1059300070936C1460936B140C944A3C0E94B9D31E
:1059400010929415109293150C94713F0E948BD372
:105950000C944A3C0E94FACF0C944A3C0E9468D3B3
:105960000C944A3C0E9459D30C944A3C0E94F8CCB7
:105970000C944A3C1092E3030C944A3C81E08093DF
:10598000E3030C944A3C0E94EACE0C944A3C83E523
:105990000E946C4D882311F40C944A3C0E94354DB2
:1059A00020E030E04AE754E40F94BE7B0F940F836D
:1059B0006093460B7093470B8093480B9093490B71
:1059C0000C944A3CBDE9CB2EB2E0DB2E11E9E12E6E
:1059D00014E1F12E10E0D6018D916D010E946C4D05
:1059E000882309F46DC0133009F063C00E94354D5F
:1059F0004B015C0120E030E040EA51E40F94597B18
:105A000087FF4EC0A501940160919D1470919E1472
:105A100080919F149091A0140F94A2822B013C01BD
:105A20009B01AC016091AD0B7091AE0B8091AF0BFF
:105A30009091B00B0F94BE7B6093AD0B7093AE0B47
:105A40008093AF0B9093B00BA30192016091F50B83
:105A50007091F60B8091F70B9091F80B0F94BE7B31
:105A60006093F50B7093F60B8093F70B9093F80B04
:105A700060917F10709180108091811090918210C0
:105A80000F945D7BA30192010F94BE7B0F940F8353
:105A900060937F1070938010809381109093821098
:105AA00080929D1490929E14A0929F14B092A01484
:105AB00007C00E94354DF701608371838283938311
:105AC0001F5FF4E0EF0EF11C143009F084CF0F9447
:105AD00010140C944A3C0E949E6D0E940DCE0C94B2
